{
  "contractName": "nftOwnable",
  "abi": [
    {
      "inputs": [],
      "stateMutability": "nonpayable",
      "type": "constructor"
    },
    {
      "anonymous": false,
      "inputs": [
        {
          "indexed": true,
          "internalType": "address",
          "name": "owner",
          "type": "address"
        },
        {
          "indexed": true,
          "internalType": "address",
          "name": "approved",
          "type": "address"
        },
        {
          "indexed": true,
          "internalType": "uint256",
          "name": "tokenId",
          "type": "uint256"
        }
      ],
      "name": "Approval",
      "type": "event"
    },
    {
      "anonymous": false,
      "inputs": [
        {
          "indexed": true,
          "internalType": "address",
          "name": "owner",
          "type": "address"
        },
        {
          "indexed": true,
          "internalType": "address",
          "name": "operator",
          "type": "address"
        },
        {
          "indexed": false,
          "internalType": "bool",
          "name": "approved",
          "type": "bool"
        }
      ],
      "name": "ApprovalForAll",
      "type": "event"
    },
    {
      "anonymous": false,
      "inputs": [
        {
          "indexed": true,
          "internalType": "address",
          "name": "previousOwner",
          "type": "address"
        },
        {
          "indexed": true,
          "internalType": "address",
          "name": "newOwner",
          "type": "address"
        }
      ],
      "name": "OwnershipTransferred",
      "type": "event"
    },
    {
      "anonymous": false,
      "inputs": [
        {
          "indexed": true,
          "internalType": "address",
          "name": "from",
          "type": "address"
        },
        {
          "indexed": true,
          "internalType": "address",
          "name": "to",
          "type": "address"
        },
        {
          "indexed": true,
          "internalType": "uint256",
          "name": "tokenId",
          "type": "uint256"
        }
      ],
      "name": "Transfer",
      "type": "event"
    },
    {
      "inputs": [
        {
          "internalType": "address",
          "name": "to",
          "type": "address"
        },
        {
          "internalType": "uint256",
          "name": "tokenId",
          "type": "uint256"
        }
      ],
      "name": "approve",
      "outputs": [],
      "stateMutability": "nonpayable",
      "type": "function"
    },
    {
      "inputs": [
        {
          "internalType": "address",
          "name": "owner",
          "type": "address"
        }
      ],
      "name": "balanceOf",
      "outputs": [
        {
          "internalType": "uint256",
          "name": "",
          "type": "uint256"
        }
      ],
      "stateMutability": "view",
      "type": "function"
    },
    {
      "inputs": [
        {
          "internalType": "uint256",
          "name": "tokenId",
          "type": "uint256"
        }
      ],
      "name": "getApproved",
      "outputs": [
        {
          "internalType": "address",
          "name": "",
          "type": "address"
        }
      ],
      "stateMutability": "view",
      "type": "function"
    },
    {
      "inputs": [
        {
          "internalType": "address",
          "name": "owner",
          "type": "address"
        },
        {
          "internalType": "address",
          "name": "operator",
          "type": "address"
        }
      ],
      "name": "isApprovedForAll",
      "outputs": [
        {
          "internalType": "bool",
          "name": "",
          "type": "bool"
        }
      ],
      "stateMutability": "view",
      "type": "function"
    },
    {
      "inputs": [],
      "name": "name",
      "outputs": [
        {
          "internalType": "string",
          "name": "",
          "type": "string"
        }
      ],
      "stateMutability": "view",
      "type": "function"
    },
    {
      "inputs": [],
      "name": "owner",
      "outputs": [
        {
          "internalType": "address",
          "name": "",
          "type": "address"
        }
      ],
      "stateMutability": "view",
      "type": "function"
    },
    {
      "inputs": [
        {
          "internalType": "uint256",
          "name": "tokenId",
          "type": "uint256"
        }
      ],
      "name": "ownerOf",
      "outputs": [
        {
          "internalType": "address",
          "name": "",
          "type": "address"
        }
      ],
      "stateMutability": "view",
      "type": "function"
    },
    {
      "inputs": [],
      "name": "renounceOwnership",
      "outputs": [],
      "stateMutability": "nonpayable",
      "type": "function"
    },
    {
      "inputs": [
        {
          "internalType": "address",
          "name": "from",
          "type": "address"
        },
        {
          "internalType": "address",
          "name": "to",
          "type": "address"
        },
        {
          "internalType": "uint256",
          "name": "tokenId",
          "type": "uint256"
        }
      ],
      "name": "safeTransferFrom",
      "outputs": [],
      "stateMutability": "nonpayable",
      "type": "function"
    },
    {
      "inputs": [
        {
          "internalType": "address",
          "name": "from",
          "type": "address"
        },
        {
          "internalType": "address",
          "name": "to",
          "type": "address"
        },
        {
          "internalType": "uint256",
          "name": "tokenId",
          "type": "uint256"
        },
        {
          "internalType": "bytes",
          "name": "_data",
          "type": "bytes"
        }
      ],
      "name": "safeTransferFrom",
      "outputs": [],
      "stateMutability": "nonpayable",
      "type": "function"
    },
    {
      "inputs": [
        {
          "internalType": "address",
          "name": "operator",
          "type": "address"
        },
        {
          "internalType": "bool",
          "name": "approved",
          "type": "bool"
        }
      ],
      "name": "setApprovalForAll",
      "outputs": [],
      "stateMutability": "nonpayable",
      "type": "function"
    },
    {
      "inputs": [
        {
          "internalType": "bytes4",
          "name": "interfaceId",
          "type": "bytes4"
        }
      ],
      "name": "supportsInterface",
      "outputs": [
        {
          "internalType": "bool",
          "name": "",
          "type": "bool"
        }
      ],
      "stateMutability": "view",
      "type": "function"
    },
    {
      "inputs": [],
      "name": "symbol",
      "outputs": [
        {
          "internalType": "string",
          "name": "",
          "type": "string"
        }
      ],
      "stateMutability": "view",
      "type": "function"
    },
    {
      "inputs": [
        {
          "internalType": "address",
          "name": "from",
          "type": "address"
        },
        {
          "internalType": "address",
          "name": "to",
          "type": "address"
        },
        {
          "internalType": "uint256",
          "name": "tokenId",
          "type": "uint256"
        }
      ],
      "name": "transferFrom",
      "outputs": [],
      "stateMutability": "nonpayable",
      "type": "function"
    },
    {
      "inputs": [
        {
          "internalType": "address",
          "name": "newOwner",
          "type": "address"
        }
      ],
      "name": "transferOwnership",
      "outputs": [],
      "stateMutability": "nonpayable",
      "type": "function"
    },
    {
      "inputs": [
        {
          "internalType": "uint256",
          "name": "tokenId",
          "type": "uint256"
        }
      ],
      "name": "tokenURI",
      "outputs": [
        {
          "internalType": "string",
          "name": "",
          "type": "string"
        }
      ],
      "stateMutability": "view",
      "type": "function"
    },
    {
      "inputs": [
        {
          "internalType": "address",
          "name": "to",
          "type": "address"
        },
        {
          "internalType": "string",
          "name": "tokenURI",
          "type": "string"
        }
      ],
      "name": "create",
      "outputs": [
        {
          "internalType": "uint256",
          "name": "",
          "type": "uint256"
        }
      ],
      "stateMutability": "nonpayable",
      "type": "function"
    }
  ],
  "bytecode": "0x60806040523480156200001157600080fd5b506040518060400160405280600681526020017f494d5a4e465400000000000000000000000000000000000000000000000000008152506040518060400160405280600381526020017f494d5a0000000000000000000000000000000000000000000000000000000000815250816000908051906020019062000096929190620001a6565b508060019080519060200190620000af929190620001a6565b505050620000d2620000c6620000d860201b60201c565b620000e060201b60201c565b620002bb565b600033905090565b6000600660009054906101000a900473ffffffffffffffffffffffffffffffffffffffff16905081600660006101000a81548173ffffffffffffffffffffffffffffffffffffffff021916908373ffffffffffffffffffffffffffffffffffffffff1602179055508173ffffffffffffffffffffffffffffffffffffffff168173ffffffffffffffffffffffffffffffffffffffff167f8be0079c531659141344cd1fd0a4f28419497f9722a3daafe3b4186f6b6457e060405160405180910390a35050565b828054620001b49062000256565b90600052602060002090601f016020900481019282620001d8576000855562000224565b82601f10620001f357805160ff191683800117855562000224565b8280016001018555821562000224579182015b828111156200022357825182559160200191906001019062000206565b5b50905062000233919062000237565b5090565b5b808211156200025257600081600090555060010162000238565b5090565b600060028204905060018216806200026f57607f821691505b602082108114156200028657620002856200028c565b5b50919050565b7f4e487b7100000000000000000000000000000000000000000000000000000000600052602260045260246000fd5b6129b380620002cb6000396000f3fe608060405234801561001057600080fd5b506004361061010b5760003560e01c8063715018a6116100a2578063a22cb46511610071578063a22cb465146102b8578063b88d4fde146102d4578063c87b56dd146102f0578063e985e9c514610320578063f2fde38b146103505761010b565b8063715018a6146102425780638da5cb5b1461024c57806395d89b411461026a578063a15ab08d146102885761010b565b806323b872dd116100de57806323b872dd146101aa57806342842e0e146101c65780636352211e146101e257806370a08231146102125761010b565b806301ffc9a71461011057806306fdde0314610140578063081812fc1461015e578063095ea7b31461018e575b600080fd5b61012a60048036038101906101259190611c32565b61036c565b6040516101379190611fcc565b60405180910390f35b61014861044e565b6040516101559190611fe7565b60405180910390f35b61017860048036038101906101739190611c8c565b6104e0565b6040516101859190611f65565b60405180910390f35b6101a860048036038101906101a39190611bf2565b610565565b005b6101c460048036038101906101bf9190611a80565b61067d565b005b6101e060048036038101906101db9190611a80565b6106dd565b005b6101fc60048036038101906101f79190611c8c565b6106fd565b6040516102099190611f65565b60405180910390f35b61022c60048036038101906102279190611a13565b6107af565b60405161023991906121e9565b60405180910390f35b61024a610867565b005b6102546108ef565b6040516102619190611f65565b60405180910390f35b610272610919565b60405161027f9190611fe7565b60405180910390f35b6102a2600480360381019061029d9190611b96565b6109ab565b6040516102af91906121e9565b60405180910390f35b6102d260048036038101906102cd9190611b56565b610a7d565b005b6102ee60048036038101906102e99190611ad3565b610a93565b005b61030a60048036038101906103059190611c8c565b610af5565b6040516103179190611fe7565b60405180910390f35b61033a60048036038101906103359190611a40565b610b9a565b6040516103479190611fcc565b60405180910390f35b61036a60048036038101906103659190611a13565b610c2e565b005b60007f80ac58cd000000000000000000000000000000000000000000000000000000007bffffffffffffffffffffffffffffffffffffffffffffffffffffffff1916827bffffffffffffffffffffffffffffffffffffffffffffffffffffffff1916148061043757507f5b5e139f000000000000000000000000000000000000000000000000000000007bffffffffffffffffffffffffffffffffffffffffffffffffffffffff1916827bffffffffffffffffffffffffffffffffffffffffffffffffffffffff1916145b80610447575061044682610d26565b5b9050919050565b60606000805461045d90612403565b80601f016020809104026020016040519081016040528092919081815260200182805461048990612403565b80156104d65780601f106104ab576101008083540402835291602001916104d6565b820191906000526020600020905b8154815290600101906020018083116104b957829003601f168201915b5050505050905090565b60006104eb82610d90565b61052a576040517f08c379a000000000000000000000000000000000000000000000000000000000815260040161052190612149565b60405180910390fd5b6004600083815260200190815260200160002060009054906101000a900473ffffffffffffffffffffffffffffffffffffffff169050919050565b6000610570826106fd565b90508073ffffffffffffffffffffffffffffffffffffffff168373ffffffffffffffffffffffffffffffffffffffff1614156105e1576040517f08c379a00000000000000000000000000000000000000000000000000000000081526004016105d8906121a9565b60405180910390fd5b8073ffffffffffffffffffffffffffffffffffffffff16610600610dfc565b73ffffffffffffffffffffffffffffffffffffffff16148061062f575061062e81610629610dfc565b610b9a565b5b61066e576040517f08c379a0000000000000000000000000000000000000000000000000000000008152600401610665906120c9565b60405180910390fd5b6106788383610e04565b505050565b61068e610688610dfc565b82610ebd565b6106cd576040517f08c379a00000000000000000000000000000000000000000000000000000000081526004016106c4906121c9565b60405180910390fd5b6106d8838383610f9b565b505050565b6106f883838360405180602001604052806000815250610a93565b505050565b6000806002600084815260200190815260200160002060009054906101000a900473ffffffffffffffffffffffffffffffffffffffff169050600073ffffffffffffffffffffffffffffffffffffffff168173ffffffffffffffffffffffffffffffffffffffff1614156107a6576040517f08c379a000000000000000000000000000000000000000000000000000000000815260040161079d90612109565b60405180910390fd5b80915050919050565b60008073ffffffffffffffffffffffffffffffffffffffff168273ffffffffffffffffffffffffffffffffffffffff161415610820576040517f08c379a0000000000000000000000000000000000000000000000000000000008152600401610817906120e9565b60405180910390fd5b600360008373ffffffffffffffffffffffffffffffffffffffff1673ffffffffffffffffffffffffffffffffffffffff168152602001908152602001600020549050919050565b61086f610dfc565b73ffffffffffffffffffffffffffffffffffffffff1661088d6108ef565b73ffffffffffffffffffffffffffffffffffffffff16146108e3576040517f08c379a00000000000000000000000000000000000000000000000000000000081526004016108da90612169565b60405180910390fd5b6108ed60006111f7565b565b6000600660009054906101000a900473ffffffffffffffffffffffffffffffffffffffff16905090565b60606001805461092890612403565b80601f016020809104026020016040519081016040528092919081815260200182805461095490612403565b80156109a15780601f10610976576101008083540402835291602001916109a1565b820191906000526020600020905b81548152906001019060200180831161098457829003601f168201915b5050505050905090565b60006109b5610dfc565b73ffffffffffffffffffffffffffffffffffffffff166109d36108ef565b73ffffffffffffffffffffffffffffffffffffffff1614610a29576040517f08c379a0000000000000000000000000000000000000000000000000000000008152600401610a2090612169565b60405180910390fd5b610a3360076112bd565b6000610a3f60076112d3565b9050610a4b84826112e1565b82600860008381526020019081526020016000209080519060200190610a72929190611827565b508091505092915050565b610a8f610a88610dfc565b83836114af565b5050565b610aa4610a9e610dfc565b83610ebd565b610ae3576040517f08c379a0000000000000000000000000000000000000000000000000000000008152600401610ada906121c9565b60405180910390fd5b610aef8484848461161c565b50505050565b6060600860008381526020019081526020016000208054610b1590612403565b80601f0160208091040260200160405190810160405280929190818152602001828054610b4190612403565b8015610b8e5780601f10610b6357610100808354040283529160200191610b8e565b820191906000526020600020905b815481529060010190602001808311610b7157829003601f168201915b50505050509050919050565b6000600560008473ffffffffffffffffffffffffffffffffffffffff1673ffffffffffffffffffffffffffffffffffffffff16815260200190815260200160002060008373ffffffffffffffffffffffffffffffffffffffff1673ffffffffffffffffffffffffffffffffffffffff16815260200190815260200160002060009054906101000a900460ff16905092915050565b610c36610dfc565b73ffffffffffffffffffffffffffffffffffffffff16610c546108ef565b73ffffffffffffffffffffffffffffffffffffffff1614610caa576040517f08c379a0000000000000000000000000000000000000000000000000000000008152600401610ca190612169565b60405180910390fd5b600073ffffffffffffffffffffffffffffffffffffffff168173ffffffffffffffffffffffffffffffffffffffff161415610d1a576040517f08c379a0000000000000000000000000000000000000000000000000000000008152600401610d1190612029565b60405180910390fd5b610d23816111f7565b50565b60007f01ffc9a7000000000000000000000000000000000000000000000000000000007bffffffffffffffffffffffffffffffffffffffffffffffffffffffff1916827bffffffffffffffffffffffffffffffffffffffffffffffffffffffff1916149050919050565b60008073ffffffffffffffffffffffffffffffffffffffff166002600084815260200190815260200160002060009054906101000a900473ffffffffffffffffffffffffffffffffffffffff1673ffffffffffffffffffffffffffffffffffffffff1614159050919050565b600033905090565b816004600083815260200190815260200160002060006101000a81548173ffffffffffffffffffffffffffffffffffffffff021916908373ffffffffffffffffffffffffffffffffffffffff160217905550808273ffffffffffffffffffffffffffffffffffffffff16610e77836106fd565b73ffffffffffffffffffffffffffffffffffffffff167f8c5be1e5ebec7d5bd14f71427d1e84f3dd0314c0f7b2291e5b200ac8c7c3b92560405160405180910390a45050565b6000610ec882610d90565b610f07576040517f08c379a0000000000000000000000000000000000000000000000000000000008152600401610efe906120a9565b60405180910390fd5b6000610f12836106fd565b90508073ffffffffffffffffffffffffffffffffffffffff168473ffffffffffffffffffffffffffffffffffffffff161480610f8157508373ffffffffffffffffffffffffffffffffffffffff16610f69846104e0565b73ffffffffffffffffffffffffffffffffffffffff16145b80610f925750610f918185610b9a565b5b91505092915050565b8273ffffffffffffffffffffffffffffffffffffffff16610fbb826106fd565b73ffffffffffffffffffffffffffffffffffffffff1614611011576040517f08c379a000000000000000000000000000000000000000000000000000000000815260040161100890612189565b60405180910390fd5b600073ffffffffffffffffffffffffffffffffffffffff168273ffffffffffffffffffffffffffffffffffffffff161415611081576040517f08c379a000000000000000000000000000000000000000000000000000000000815260040161107890612069565b60405180910390fd5b61108c838383611678565b611097600082610e04565b6001600360008573ffffffffffffffffffffffffffffffffffffffff1673ffffffffffffffffffffffffffffffffffffffff16815260200190815260200160002060008282546110e79190612319565b925050819055506001600360008473ffffffffffffffffffffffffffffffffffffffff1673ffffffffffffffffffffffffffffffffffffffff168152602001908152602001600020600082825461113e91906122c3565b92505081905550816002600083815260200190815260200160002060006101000a81548173ffffffffffffffffffffffffffffffffffffffff021916908373ffffffffffffffffffffffffffffffffffffffff160217905550808273ffffffffffffffffffffffffffffffffffffffff168473ffffffffffffffffffffffffffffffffffffffff167fddf252ad1be2c89b69c2b068fc378daa952ba7f163c4a11628f55a4df523b3ef60405160405180910390a4505050565b6000600660009054906101000a900473ffffffffffffffffffffffffffffffffffffffff16905081600660006101000a81548173ffffffffffffffffffffffffffffffffffffffff021916908373ffffffffffffffffffffffffffffffffffffffff1602179055508173ffffffffffffffffffffffffffffffffffffffff168173ffffffffffffffffffffffffffffffffffffffff167f8be0079c531659141344cd1fd0a4f28419497f9722a3daafe3b4186f6b6457e060405160405180910390a35050565b6001816000016000828254019250508190555050565b600081600001549050919050565b600073ffffffffffffffffffffffffffffffffffffffff168273ffffffffffffffffffffffffffffffffffffffff161415611351576040517f08c379a000000000000000000000000000000000000000000000000000000000815260040161134890612129565b60405180910390fd5b61135a81610d90565b1561139a576040517f08c379a000000000000000000000000000000000000000000000000000000000815260040161139190612049565b60405180910390fd5b6113a660008383611678565b6001600360008473ffffffffffffffffffffffffffffffffffffffff1673ffffffffffffffffffffffffffffffffffffffff16815260200190815260200160002060008282546113f691906122c3565b92505081905550816002600083815260200190815260200160002060006101000a81548173ffffffffffffffffffffffffffffffffffffffff021916908373ffffffffffffffffffffffffffffffffffffffff160217905550808273ffffffffffffffffffffffffffffffffffffffff16600073ffffffffffffffffffffffffffffffffffffffff167fddf252ad1be2c89b69c2b068fc378daa952ba7f163c4a11628f55a4df523b3ef60405160405180910390a45050565b8173ffffffffffffffffffffffffffffffffffffffff168373ffffffffffffffffffffffffffffffffffffffff16141561151e576040517f08c379a000000000000000000000000000000000000000000000000000000000815260040161151590612089565b60405180910390fd5b80600560008573ffffffffffffffffffffffffffffffffffffffff1673ffffffffffffffffffffffffffffffffffffffff16815260200190815260200160002060008473ffffffffffffffffffffffffffffffffffffffff1673ffffffffffffffffffffffffffffffffffffffff16815260200190815260200160002060006101000a81548160ff0219169083151502179055508173ffffffffffffffffffffffffffffffffffffffff168373ffffffffffffffffffffffffffffffffffffffff167f17307eab39ab6107e8899845ad3d59bd9653f200f220920489ca2b5937696c318360405161160f9190611fcc565b60405180910390a3505050565b611627848484610f9b565b6116338484848461167d565b611672576040517f08c379a000000000000000000000000000000000000000000000000000000000815260040161166990612009565b60405180910390fd5b50505050565b505050565b600061169e8473ffffffffffffffffffffffffffffffffffffffff16611814565b15611807578373ffffffffffffffffffffffffffffffffffffffff1663150b7a026116c7610dfc565b8786866040518563ffffffff1660e01b81526004016116e99493929190611f80565b602060405180830381600087803b15801561170357600080fd5b505af192505050801561173457506040513d601f19601f820116820180604052508101906117319190611c5f565b60015b6117b7573d8060008114611764576040519150601f19603f3d011682016040523d82523d6000602084013e611769565b606091505b506000815114156117af576040517f08c379a00000000000000000000000000000000000000000000000000000000081526004016117a690612009565b60405180910390fd5b805181602001fd5b63150b7a0260e01b7bffffffffffffffffffffffffffffffffffffffffffffffffffffffff1916817bffffffffffffffffffffffffffffffffffffffffffffffffffffffff19161491505061180c565b600190505b949350505050565b600080823b905060008111915050919050565b82805461183390612403565b90600052602060002090601f016020900481019282611855576000855561189c565b82601f1061186e57805160ff191683800117855561189c565b8280016001018555821561189c579182015b8281111561189b578251825591602001919060010190611880565b5b5090506118a991906118ad565b5090565b5b808211156118c65760008160009055506001016118ae565b5090565b60006118dd6118d884612229565b612204565b9050828152602081018484840111156118f9576118f86124f8565b5b6119048482856123c1565b509392505050565b600061191f61191a8461225a565b612204565b90508281526020810184848401111561193b5761193a6124f8565b5b6119468482856123c1565b509392505050565b60008135905061195d81612921565b92915050565b60008135905061197281612938565b92915050565b6000813590506119878161294f565b92915050565b60008151905061199c8161294f565b92915050565b600082601f8301126119b7576119b66124f3565b5b81356119c78482602086016118ca565b91505092915050565b600082601f8301126119e5576119e46124f3565b5b81356119f584826020860161190c565b91505092915050565b600081359050611a0d81612966565b92915050565b600060208284031215611a2957611a28612502565b5b6000611a378482850161194e565b91505092915050565b60008060408385031215611a5757611a56612502565b5b6000611a658582860161194e565b9250506020611a768582860161194e565b9150509250929050565b600080600060608486031215611a9957611a98612502565b5b6000611aa78682870161194e565b9350506020611ab88682870161194e565b9250506040611ac9868287016119fe565b9150509250925092565b60008060008060808587031215611aed57611aec612502565b5b6000611afb8782880161194e565b9450506020611b0c8782880161194e565b9350506040611b1d878288016119fe565b925050606085013567ffffffffffffffff811115611b3e57611b3d6124fd565b5b611b4a878288016119a2565b91505092959194509250565b60008060408385031215611b6d57611b6c612502565b5b6000611b7b8582860161194e565b9250506020611b8c85828601611963565b9150509250929050565b60008060408385031215611bad57611bac612502565b5b6000611bbb8582860161194e565b925050602083013567ffffffffffffffff811115611bdc57611bdb6124fd565b5b611be8858286016119d0565b9150509250929050565b60008060408385031215611c0957611c08612502565b5b6000611c178582860161194e565b9250506020611c28858286016119fe565b9150509250929050565b600060208284031215611c4857611c47612502565b5b6000611c5684828501611978565b91505092915050565b600060208284031215611c7557611c74612502565b5b6000611c838482850161198d565b91505092915050565b600060208284031215611ca257611ca1612502565b5b6000611cb0848285016119fe565b91505092915050565b611cc28161234d565b82525050565b611cd18161235f565b82525050565b6000611ce28261228b565b611cec81856122a1565b9350611cfc8185602086016123d0565b611d0581612507565b840191505092915050565b6000611d1b82612296565b611d2581856122b2565b9350611d358185602086016123d0565b611d3e81612507565b840191505092915050565b6000611d566032836122b2565b9150611d6182612518565b604082019050919050565b6000611d796026836122b2565b9150611d8482612567565b604082019050919050565b6000611d9c601c836122b2565b9150611da7826125b6565b602082019050919050565b6000611dbf6024836122b2565b9150611dca826125df565b604082019050919050565b6000611de26019836122b2565b9150611ded8261262e565b602082019050919050565b6000611e05602c836122b2565b9150611e1082612657565b604082019050919050565b6000611e286038836122b2565b9150611e33826126a6565b604082019050919050565b6000611e4b602a836122b2565b9150611e56826126f5565b604082019050919050565b6000611e6e6029836122b2565b9150611e7982612744565b604082019050919050565b6000611e916020836122b2565b9150611e9c82612793565b602082019050919050565b6000611eb4602c836122b2565b9150611ebf826127bc565b604082019050919050565b6000611ed76020836122b2565b9150611ee28261280b565b602082019050919050565b6000611efa6029836122b2565b9150611f0582612834565b604082019050919050565b6000611f1d6021836122b2565b9150611f2882612883565b604082019050919050565b6000611f406031836122b2565b9150611f4b826128d2565b604082019050919050565b611f5f816123b7565b82525050565b6000602082019050611f7a6000830184611cb9565b92915050565b6000608082019050611f956000830187611cb9565b611fa26020830186611cb9565b611faf6040830185611f56565b8181036060830152611fc18184611cd7565b905095945050505050565b6000602082019050611fe16000830184611cc8565b92915050565b600060208201905081810360008301526120018184611d10565b905092915050565b6000602082019050818103600083015261202281611d49565b9050919050565b6000602082019050818103600083015261204281611d6c565b9050919050565b6000602082019050818103600083015261206281611d8f565b9050919050565b6000602082019050818103600083015261208281611db2565b9050919050565b600060208201905081810360008301526120a281611dd5565b9050919050565b600060208201905081810360008301526120c281611df8565b9050919050565b600060208201905081810360008301526120e281611e1b565b9050919050565b6000602082019050818103600083015261210281611e3e565b9050919050565b6000602082019050818103600083015261212281611e61565b9050919050565b6000602082019050818103600083015261214281611e84565b9050919050565b6000602082019050818103600083015261216281611ea7565b9050919050565b6000602082019050818103600083015261218281611eca565b9050919050565b600060208201905081810360008301526121a281611eed565b9050919050565b600060208201905081810360008301526121c281611f10565b9050919050565b600060208201905081810360008301526121e281611f33565b9050919050565b60006020820190506121fe6000830184611f56565b92915050565b600061220e61221f565b905061221a8282612435565b919050565b6000604051905090565b600067ffffffffffffffff821115612244576122436124c4565b5b61224d82612507565b9050602081019050919050565b600067ffffffffffffffff821115612275576122746124c4565b5b61227e82612507565b9050602081019050919050565b600081519050919050565b600081519050919050565b600082825260208201905092915050565b600082825260208201905092915050565b60006122ce826123b7565b91506122d9836123b7565b9250827fffffffffffffffffffffffffffffffffffffffffffffffffffffffffffffffff0382111561230e5761230d612466565b5b828201905092915050565b6000612324826123b7565b915061232f836123b7565b92508282101561234257612341612466565b5b828203905092915050565b600061235882612397565b9050919050565b60008115159050919050565b60007fffffffff0000000000000000000000000000000000000000000000000000000082169050919050565b600073ffffffffffffffffffffffffffffffffffffffff82169050919050565b6000819050919050565b82818337600083830152505050565b60005b838110156123ee5780820151818401526020810190506123d3565b838111156123fd576000848401525b50505050565b6000600282049050600182168061241b57607f821691505b6020821081141561242f5761242e612495565b5b50919050565b61243e82612507565b810181811067ffffffffffffffff8211171561245d5761245c6124c4565b5b80604052505050565b7f4e487b7100000000000000000000000000000000000000000000000000000000600052601160045260246000fd5b7f4e487b7100000000000000000000000000000000000000000000000000000000600052602260045260246000fd5b7f4e487b7100000000000000000000000000000000000000000000000000000000600052604160045260246000fd5b600080fd5b600080fd5b600080fd5b600080fd5b6000601f19601f8301169050919050565b7f4552433732313a207472616e7366657220746f206e6f6e20455243373231526560008201527f63656976657220696d706c656d656e7465720000000000000000000000000000602082015250565b7f4f776e61626c653a206e6577206f776e657220697320746865207a65726f206160008201527f6464726573730000000000000000000000000000000000000000000000000000602082015250565b7f4552433732313a20746f6b656e20616c7265616479206d696e74656400000000600082015250565b7f4552433732313a207472616e7366657220746f20746865207a65726f2061646460008201527f7265737300000000000000000000000000000000000000000000000000000000602082015250565b7f4552433732313a20617070726f766520746f2063616c6c657200000000000000600082015250565b7f4552433732313a206f70657261746f7220717565727920666f72206e6f6e657860008201527f697374656e7420746f6b656e0000000000000000000000000000000000000000602082015250565b7f4552433732313a20617070726f76652063616c6c6572206973206e6f74206f7760008201527f6e6572206e6f7220617070726f76656420666f7220616c6c0000000000000000602082015250565b7f4552433732313a2062616c616e636520717565727920666f7220746865207a6560008201527f726f206164647265737300000000000000000000000000000000000000000000602082015250565b7f4552433732313a206f776e657220717565727920666f72206e6f6e657869737460008201527f656e7420746f6b656e0000000000000000000000000000000000000000000000602082015250565b7f4552433732313a206d696e7420746f20746865207a65726f2061646472657373600082015250565b7f4552433732313a20617070726f76656420717565727920666f72206e6f6e657860008201527f697374656e7420746f6b656e0000000000000000000000000000000000000000602082015250565b7f4f776e61626c653a2063616c6c6572206973206e6f7420746865206f776e6572600082015250565b7f4552433732313a207472616e73666572206f6620746f6b656e2074686174206960008201527f73206e6f74206f776e0000000000000000000000000000000000000000000000602082015250565b7f4552433732313a20617070726f76616c20746f2063757272656e74206f776e6560008201527f7200000000000000000000000000000000000000000000000000000000000000602082015250565b7f4552433732313a207472616e736665722063616c6c6572206973206e6f74206f60008201527f776e6572206e6f7220617070726f766564000000000000000000000000000000602082015250565b61292a8161234d565b811461293557600080fd5b50565b6129418161235f565b811461294c57600080fd5b50565b6129588161236b565b811461296357600080fd5b50565b61296f816123b7565b811461297a57600080fd5b5056fea2646970667358221220722259da9b971d2334520b8a18365702a0fec1392522d71f2f8c7ce73821636764736f6c63430008070033",
  "immutableReferences": {},
  "source": "// SPDX-License-Identifier: GPL-3.0\n\npragma solidity ^0.8.7;\n\nimport \"@openzeppelin/contracts/token/ERC721/ERC721.sol\";\nimport \"@openzeppelin/contracts/utils/Counters.sol\";\nimport \"@openzeppelin/contracts/access/Ownable.sol\";\n\n\ncontract nftOwnable is ERC721, Ownable {\n    using Counters for Counters.Counter;\n    Counters.Counter private _tokenIds;\n\n    constructor() ERC721(\"IMZNFT\", \"IMZ\") {}\n\n    mapping(uint => string) tokenURIs;\n\n    function tokenURI(uint256 tokenId) public view virtual override returns (string memory) {\n      return tokenURIs[tokenId];\n    }\n\n    function create(address to, string memory tokenURI) public onlyOwner returns (uint256)\n    {\n        _tokenIds.increment();\n\n        uint256 newItemId = _tokenIds.current();\n        _mint(to, newItemId);\n        tokenURIs[newItemId] = tokenURI;\n\n        return newItemId;\n    }\n}",
  "sourcePath": "/Users/imjohnny/Documents/codestates/HA4/TrufflewithERC721/contracts/nftOwnable.sol",
  "compiler": {
    "name": "solc",
    "version": "0.8.7+commit.e28d00a7.Emscripten.clang"
  },
  "schemaVersion": "3.4.4",
  "updatedAt": "2022-02-07T10:06:53.010Z",
  "devdoc": {
    "kind": "dev",
    "methods": {
      "approve(address,uint256)": {
        "details": "See {IERC721-approve}."
      },
      "balanceOf(address)": {
        "details": "See {IERC721-balanceOf}."
      },
      "getApproved(uint256)": {
        "details": "See {IERC721-getApproved}."
      },
      "isApprovedForAll(address,address)": {
        "details": "See {IERC721-isApprovedForAll}."
      },
      "name()": {
        "details": "See {IERC721Metadata-name}."
      },
      "owner()": {
        "details": "Returns the address of the current owner."
      },
      "ownerOf(uint256)": {
        "details": "See {IERC721-ownerOf}."
      },
      "renounceOwnership()": {
        "details": "Leaves the contract without owner. It will not be possible to call `onlyOwner` functions anymore. Can only be called by the current owner. NOTE: Renouncing ownership will leave the contract without an owner, thereby removing any functionality that is only available to the owner."
      },
      "safeTransferFrom(address,address,uint256)": {
        "details": "See {IERC721-safeTransferFrom}."
      },
      "safeTransferFrom(address,address,uint256,bytes)": {
        "details": "See {IERC721-safeTransferFrom}."
      },
      "setApprovalForAll(address,bool)": {
        "details": "See {IERC721-setApprovalForAll}."
      },
      "supportsInterface(bytes4)": {
        "details": "See {IERC165-supportsInterface}."
      },
      "symbol()": {
        "details": "See {IERC721Metadata-symbol}."
      },
      "tokenURI(uint256)": {
        "details": "See {IERC721Metadata-tokenURI}."
      },
      "transferFrom(address,address,uint256)": {
        "details": "See {IERC721-transferFrom}."
      },
      "transferOwnership(address)": {
        "details": "Transfers ownership of the contract to a new account (`newOwner`). Can only be called by the current owner."
      }
    },
    "version": 1
  },
  "userdoc": {
    "kind": "user",
    "methods": {},
    "version": 1
  }
}